{
  "_format": "hh-sol-artifact-1",
  "contractName": "ChallengeRewards",
  "sourceName": "contracts/ChallengeRewards.sol",
  "abi": [
    {
      "inputs": [
        {
          "internalType": "address",
          "name": "_nocenite",
          "type": "address"
        },
        {
          "internalType": "address",
          "name": "_relayer",
          "type": "address"
        },
        {
          "internalType": "address",
          "name": "initialOwner",
          "type": "address"
        }
      ],
      "stateMutability": "nonpayable",
      "type": "constructor"
    },
    {
      "inputs": [],
      "name": "AmountExceedsMaximum",
      "type": "error"
    },
    {
      "inputs": [],
      "name": "CooldownActive",
      "type": "error"
    },
    {
      "inputs": [],
      "name": "ECDSAInvalidSignature",
      "type": "error"
    },
    {
      "inputs": [
        {
          "internalType": "uint256",
          "name": "length",
          "type": "uint256"
        }
      ],
      "name": "ECDSAInvalidSignatureLength",
      "type": "error"
    },
    {
      "inputs": [
        {
          "internalType": "bytes32",
          "name": "s",
          "type": "bytes32"
        }
      ],
      "name": "ECDSAInvalidSignatureS",
      "type": "error"
    },
    {
      "inputs": [],
      "name": "EmptyIPFSHash",
      "type": "error"
    },
    {
      "inputs": [],
      "name": "IPFSHashAlreadyUsed",
      "type": "error"
    },
    {
      "inputs": [],
      "name": "InvalidSignature",
      "type": "error"
    },
    {
      "inputs": [],
      "name": "InvalidSignatureLength",
      "type": "error"
    },
    {
      "inputs": [],
      "name": "NotRelayer",
      "type": "error"
    },
    {
      "inputs": [
        {
          "internalType": "address",
          "name": "owner",
          "type": "address"
        }
      ],
      "name": "OwnableInvalidOwner",
      "type": "error"
    },
    {
      "inputs": [
        {
          "internalType": "address",
          "name": "account",
          "type": "address"
        }
      ],
      "name": "OwnableUnauthorizedAccount",
      "type": "error"
    },
    {
      "inputs": [],
      "name": "ReentrancyGuardReentrantCall",
      "type": "error"
    },
    {
      "inputs": [],
      "name": "SelfReferentialChallenge",
      "type": "error"
    },
    {
      "inputs": [],
      "name": "SignatureAlreadyUsed",
      "type": "error"
    },
    {
      "inputs": [],
      "name": "ZeroAddress",
      "type": "error"
    },
    {
      "anonymous": false,
      "inputs": [
        {
          "indexed": true,
          "internalType": "address",
          "name": "user",
          "type": "address"
        },
        {
          "indexed": true,
          "internalType": "string",
          "name": "challengeType",
          "type": "string"
        },
        {
          "indexed": false,
          "internalType": "uint256",
          "name": "reward",
          "type": "uint256"
        },
        {
          "indexed": false,
          "internalType": "string",
          "name": "ipfsHash",
          "type": "string"
        }
      ],
      "name": "ChallengeCompleted",
      "type": "event"
    },
    {
      "anonymous": false,
      "inputs": [
        {
          "indexed": true,
          "internalType": "address",
          "name": "previousOwner",
          "type": "address"
        },
        {
          "indexed": true,
          "internalType": "address",
          "name": "newOwner",
          "type": "address"
        }
      ],
      "name": "OwnershipTransferred",
      "type": "event"
    },
    {
      "anonymous": false,
      "inputs": [
        {
          "indexed": true,
          "internalType": "address",
          "name": "oldRelayer",
          "type": "address"
        },
        {
          "indexed": true,
          "internalType": "address",
          "name": "newRelayer",
          "type": "address"
        }
      ],
      "name": "RelayerUpdated",
      "type": "event"
    },
    {
      "inputs": [],
      "name": "DAILY_REWARD",
      "outputs": [
        {
          "internalType": "uint256",
          "name": "",
          "type": "uint256"
        }
      ],
      "stateMutability": "view",
      "type": "function"
    },
    {
      "inputs": [],
      "name": "DAY_DURATION",
      "outputs": [
        {
          "internalType": "uint256",
          "name": "",
          "type": "uint256"
        }
      ],
      "stateMutability": "view",
      "type": "function"
    },
    {
      "inputs": [],
      "name": "MONTHLY_REWARD",
      "outputs": [
        {
          "internalType": "uint256",
          "name": "",
          "type": "uint256"
        }
      ],
      "stateMutability": "view",
      "type": "function"
    },
    {
      "inputs": [],
      "name": "MONTH_DURATION",
      "outputs": [
        {
          "internalType": "uint256",
          "name": "",
          "type": "uint256"
        }
      ],
      "stateMutability": "view",
      "type": "function"
    },
    {
      "inputs": [],
      "name": "WEEKLY_REWARD",
      "outputs": [
        {
          "internalType": "uint256",
          "name": "",
          "type": "uint256"
        }
      ],
      "stateMutability": "view",
      "type": "function"
    },
    {
      "inputs": [],
      "name": "WEEK_DURATION",
      "outputs": [
        {
          "internalType": "uint256",
          "name": "",
          "type": "uint256"
        }
      ],
      "stateMutability": "view",
      "type": "function"
    },
    {
      "inputs": [
        {
          "internalType": "address",
          "name": "user",
          "type": "address"
        },
        {
          "internalType": "string",
          "name": "ipfsHash",
          "type": "string"
        },
        {
          "internalType": "bytes",
          "name": "signature",
          "type": "bytes"
        }
      ],
      "name": "completeDailyChallenge",
      "outputs": [],
      "stateMutability": "nonpayable",
      "type": "function"
    },
    {
      "inputs": [
        {
          "internalType": "address",
          "name": "user",
          "type": "address"
        },
        {
          "internalType": "string",
          "name": "ipfsHash",
          "type": "string"
        },
        {
          "internalType": "bytes",
          "name": "signature",
          "type": "bytes"
        }
      ],
      "name": "completeMonthlyChallenge",
      "outputs": [],
      "stateMutability": "nonpayable",
      "type": "function"
    },
    {
      "inputs": [
        {
          "internalType": "address",
          "name": "recipient",
          "type": "address"
        },
        {
          "internalType": "address",
          "name": "creator",
          "type": "address"
        },
        {
          "internalType": "uint256",
          "name": "recipientAmount",
          "type": "uint256"
        },
        {
          "internalType": "string",
          "name": "ipfsHash",
          "type": "string"
        },
        {
          "internalType": "bytes",
          "name": "signature",
          "type": "bytes"
        }
      ],
      "name": "completePrivateChallenge",
      "outputs": [],
      "stateMutability": "nonpayable",
      "type": "function"
    },
    {
      "inputs": [
        {
          "internalType": "address",
          "name": "user",
          "type": "address"
        },
        {
          "internalType": "uint256",
          "name": "rewardAmount",
          "type": "uint256"
        },
        {
          "internalType": "string",
          "name": "ipfsHash",
          "type": "string"
        },
        {
          "internalType": "bytes",
          "name": "signature",
          "type": "bytes"
        }
      ],
      "name": "completePublicChallenge",
      "outputs": [],
      "stateMutability": "nonpayable",
      "type": "function"
    },
    {
      "inputs": [
        {
          "internalType": "address",
          "name": "user",
          "type": "address"
        },
        {
          "internalType": "string",
          "name": "ipfsHash",
          "type": "string"
        },
        {
          "internalType": "bytes",
          "name": "signature",
          "type": "bytes"
        }
      ],
      "name": "completeWeeklyChallenge",
      "outputs": [],
      "stateMutability": "nonpayable",
      "type": "function"
    },
    {
      "inputs": [
        {
          "internalType": "address",
          "name": "",
          "type": "address"
        },
        {
          "internalType": "string",
          "name": "",
          "type": "string"
        }
      ],
      "name": "lastClaim",
      "outputs": [
        {
          "internalType": "uint256",
          "name": "",
          "type": "uint256"
        }
      ],
      "stateMutability": "view",
      "type": "function"
    },
    {
      "inputs": [],
      "name": "nocenite",
      "outputs": [
        {
          "internalType": "contract Nocenite",
          "name": "",
          "type": "address"
        }
      ],
      "stateMutability": "view",
      "type": "function"
    },
    {
      "inputs": [],
      "name": "owner",
      "outputs": [
        {
          "internalType": "address",
          "name": "",
          "type": "address"
        }
      ],
      "stateMutability": "view",
      "type": "function"
    },
    {
      "inputs": [],
      "name": "relayer",
      "outputs": [
        {
          "internalType": "address",
          "name": "",
          "type": "address"
        }
      ],
      "stateMutability": "view",
      "type": "function"
    },
    {
      "inputs": [],
      "name": "renounceOwnership",
      "outputs": [],
      "stateMutability": "nonpayable",
      "type": "function"
    },
    {
      "inputs": [
        {
          "internalType": "address",
          "name": "newOwner",
          "type": "address"
        }
      ],
      "name": "transferOwnership",
      "outputs": [],
      "stateMutability": "nonpayable",
      "type": "function"
    },
    {
      "inputs": [
        {
          "internalType": "address",
          "name": "newRelayer",
          "type": "address"
        }
      ],
      "name": "updateRelayer",
      "outputs": [],
      "stateMutability": "nonpayable",
      "type": "function"
    },
    {
      "inputs": [
        {
          "internalType": "bytes32",
          "name": "",
          "type": "bytes32"
        }
      ],
      "name": "usedIPFSHashes",
      "outputs": [
        {
          "internalType": "bool",
          "name": "",
          "type": "bool"
        }
      ],
      "stateMutability": "view",
      "type": "function"
    },
    {
      "inputs": [
        {
          "internalType": "bytes32",
          "name": "",
          "type": "bytes32"
        }
      ],
      "name": "usedSignatures",
      "outputs": [
        {
          "internalType": "bool",
          "name": "",
          "type": "bool"
        }
      ],
      "stateMutability": "view",
      "type": "function"
    }
  ],
  "bytecode": "0x60a060405234801561001057600080fd5b506040516119cf3803806119cf83398101604081905261002f9161013c565b806001600160a01b03811661005e57604051631e4fbdf760e01b81526000600482015260240160405180910390fd5b610067816100d0565b50600180556001600160a01b038316158061008957506001600160a01b038216155b156100a75760405163d92e233d60e01b815260040160405180910390fd5b506001600160a01b03918216608052600280546001600160a01b0319169190921617905561017f565b600080546001600160a01b038381166001600160a01b0319831681178455604051919092169283917f8be0079c531659141344cd1fd0a4f28419497f9722a3daafe3b4186f6b6457e09190a35050565b80516001600160a01b038116811461013757600080fd5b919050565b60008060006060848603121561015157600080fd5b61015a84610120565b925061016860208501610120565b915061017660408501610120565b90509250925092565b6080516118196101b660003960008181610176015281816104e101528181610863015281816108e30152610f8901526118196000f3fe608060405234801561001057600080fd5b506004361061016c5760003560e01c80638f83ab13116100cd578063e573bbc511610081578063e98c20ba11610066578063e98c20ba146102ed578063f2fde38b14610320578063f978fd611461033357600080fd5b8063e573bbc5146102a1578063e91d8554146102dd57600080fd5b8063be93b8db116100b2578063be93b8db14610274578063c72c23841461027e578063cf5800ba1461029157600080fd5b80638f83ab131461024e578063b560c7a51461026157600080fd5b8063715018a6116101245780638406c079116101095780638406c07914610217578063867c245d1461022a5780638da5cb5b1461023d57600080fd5b8063715018a61461020557806376f5f7001461020d57600080fd5b80632a891534116101555780632a891534146101ca578063505eef76146101e25780636cbe14da146101f557600080fd5b80631704a8821461017157806323faaeca146101b5575b600080fd5b6101987f000000000000000000000000000000000000000000000000000000000000000081565b6040516001600160a01b0390911681526020015b60405180910390f35b6101c86101c33660046113a3565b610356565b005b6101d462278d0081565b6040519081526020016101ac565b6101c86101f0366004611432565b6105b5565b6101d468878678326eac90000081565b6101c8610649565b6101d462093a8081565b600254610198906001600160a01b031681565b6101c86102383660046114b8565b61065d565b6000546001600160a01b0316610198565b6101c861025c366004611558565b610a32565b6101c861026f366004611432565b610ac0565b6101d46201518081565b6101c861028c366004611432565b610b44565b6101d468056bc75e2d6310000081565b6101d46102af366004611590565b6003602090815260009283526040909220815180830184018051928152908401929093019190912091525481565b6101d4681b1ae4d6e2ef50000081565b6103106102fb36600461165a565b60056020526000908152604090205460ff1681565b60405190151581526020016101ac565b6101c861032e366004611558565b610bc8565b61031061034136600461165a565b60046020526000908152604090205460ff1681565b61035e610c24565b6002546001600160a01b031633146103895760405163c64891a560e01b815260040160405180910390fd5b60008390036103ab576040516336225e2360e01b815260040160405180910390fd5b604181146103cc57604051634be6321b60e01b815260040160405180910390fd5b6001600160a01b0386166103f35760405163d92e233d60e01b815260040160405180910390fd5b8415806104085750683635c9adc5dea0000085115b15610426576040516311b5c73d60e21b815260040160405180910390fd5b61045286604051806040016040528060068152602001657075626c696360d01b81525086868686610c67565b60008484604051610464929190611673565b604080519182900390912060008181526005602052919091205490915060ff16156104a2576040516374477eff60e01b815260040160405180910390fd5b60008181526005602052604090819020805460ff19166001179055516340c10f1960e01b81526001600160a01b038881166004830152602482018890527f000000000000000000000000000000000000000000000000000000000000000016906340c10f1990604401600060405180830381600087803b15801561052557600080fd5b505af1158015610539573d6000803e3d6000fd5b5050505060405161055690657075626c696360d01b815260060190565b6040518091039020876001600160a01b03167f72ebf7ead272df636bb09f7e8c3097106ae78585662f06d2be7777a128cb221588888860405161059b939291906116ac565b60405180910390a3506105ad60018055565b505050505050565b6105bd610c24565b6002546001600160a01b031633146105e85760405163c64891a560e01b815260040160405180910390fd5b610639856040518060400160405280600681526020017f7765656b6c79000000000000000000000000000000000000000000000000000081525062093a80681b1ae4d6e2ef50000088888888610dce565b61064260018055565b5050505050565b61065161104b565b61065b6000611091565b565b610665610c24565b6002546001600160a01b031633146106905760405163c64891a560e01b815260040160405180910390fd5b60008390036106b2576040516336225e2360e01b815260040160405180910390fd5b604181146106d357604051634be6321b60e01b815260040160405180910390fd5b6001600160a01b03871615806106f057506001600160a01b038616155b1561070e5760405163d92e233d60e01b815260040160405180910390fd5b8415806107235750680d8d726b7177a8000085115b15610741576040516311b5c73d60e21b815260040160405180910390fd5b856001600160a01b0316876001600160a01b03160361078c576040517f2c221c5d00000000000000000000000000000000000000000000000000000000815260040160405180910390fd5b6000606461079b87600a6116e5565b6107a591906116fc565b90506107d488604051806040016040528060078152602001667072697661746560c81b81525087878787610c67565b600085856040516107e6929190611673565b604080519182900390912060008181526005602052919091205490915060ff1615610824576040516374477eff60e01b815260040160405180910390fd5b60008181526005602052604090819020805460ff19166001179055516340c10f1960e01b81526001600160a01b038a81166004830152602482018990527f000000000000000000000000000000000000000000000000000000000000000016906340c10f1990604401600060405180830381600087803b1580156108a757600080fd5b505af11580156108bb573d6000803e3d6000fd5b50506040516340c10f1960e01b81526001600160a01b038b81166004830152602482018690527f00000000000000000000000000000000000000000000000000000000000000001692506340c10f199150604401600060405180830381600087803b15801561092957600080fd5b505af115801561093d573d6000803e3d6000fd5b5050505060405161095b90667072697661746560c81b815260070190565b6040518091039020896001600160a01b03167f72ebf7ead272df636bb09f7e8c3097106ae78585662f06d2be7777a128cb22158989896040516109a0939291906116ac565b60405180910390a36040517f707269766174652d63726561746f7200000000000000000000000000000000008152600f016040518091039020886001600160a01b03167f72ebf7ead272df636bb09f7e8c3097106ae78585662f06d2be7777a128cb2215848989604051610a16939291906116ac565b60405180910390a35050610a2960018055565b50505050505050565b610a3a61104b565b6001600160a01b038116610a615760405163d92e233d60e01b815260040160405180910390fd5b600280546001600160a01b0383811673ffffffffffffffffffffffffffffffffffffffff19831681179093556040519116919082907f605ca4e43489fb38b91aa63dd9147cd3847957694b080b9285ec898b34269f0c90600090a35050565b610ac8610c24565b6002546001600160a01b03163314610af35760405163c64891a560e01b815260040160405180910390fd5b610639856040518060400160405280600781526020017f6d6f6e74686c790000000000000000000000000000000000000000000000000081525062278d0068878678326eac90000088888888610dce565b610b4c610c24565b6002546001600160a01b03163314610b775760405163c64891a560e01b815260040160405180910390fd5b610639856040518060400160405280600581526020017f6461696c790000000000000000000000000000000000000000000000000000008152506201518068056bc75e2d6310000088888888610dce565b610bd061104b565b6001600160a01b038116610c18576040517f1e4fbdf7000000000000000000000000000000000000000000000000000000008152600060048201526024015b60405180910390fd5b610c2181611091565b50565b600260015403610c60576040517f3ee5aeb500000000000000000000000000000000000000000000000000000000815260040160405180910390fd5b6002600155565b600086868686604051602001610c809493929190611742565b6040516020818303038152906040528051906020012090506000610cd1827f19457468657265756d205369676e6564204d6573736167653a0a3332000000006000908152601c91909152603c902090565b600254604080516020601f88018190048102820181019092528681529293506001600160a01b0390911691610d2391879087908190840183828082843760009201919091525086939250506110ee9050565b6001600160a01b031614610d63576040517f8baa579f00000000000000000000000000000000000000000000000000000000815260040160405180910390fd5b60008181526004602052604090205460ff1615610dac576040517f900bb2c900000000000000000000000000000000000000000000000000000000815260040160405180910390fd5b6000908152600460205260409020805460ff1916600117905550505050505050565b6000839003610df0576040516336225e2360e01b815260040160405180910390fd5b60418114610e1157604051634be6321b60e01b815260040160405180910390fd5b6001600160a01b038816610e385760405163d92e233d60e01b815260040160405180910390fd5b6001600160a01b038816600090815260036020526040908190209051879190610e62908a9061179e565b908152602001604051809103902054610e7b91906117ba565b421015610eb4576040517faa9a98df00000000000000000000000000000000000000000000000000000000815260040160405180910390fd5b610ec2888886868686610c67565b60008484604051610ed4929190611673565b604080519182900390912060008181526005602052919091205490915060ff1615610f12576040516374477eff60e01b815260040160405180910390fd5b6000818152600560209081526040808320805460ff191660011790556001600160a01b038c1683526003909152908190209051429190610f53908b9061179e565b908152604051908190036020018120919091556340c10f1960e01b81526001600160a01b038a81166004830152602482018890527f000000000000000000000000000000000000000000000000000000000000000016906340c10f1990604401600060405180830381600087803b158015610fcd57600080fd5b505af1158015610fe1573d6000803e3d6000fd5b5050505087604051610ff3919061179e565b6040518091039020896001600160a01b03167f72ebf7ead272df636bb09f7e8c3097106ae78585662f06d2be7777a128cb2215888888604051611038939291906116ac565b60405180910390a3505050505050505050565b6000546001600160a01b0316331461065b576040517f118cdaa7000000000000000000000000000000000000000000000000000000008152336004820152602401610c0f565b600080546001600160a01b0383811673ffffffffffffffffffffffffffffffffffffffff19831681178455604051919092169283917f8be0079c531659141344cd1fd0a4f28419497f9722a3daafe3b4186f6b6457e09190a35050565b6000806000806110fe868661111a565b92509250925061110e8282611167565b50909150505b92915050565b600080600083516041036111545760208401516040850151606086015160001a6111468882858561126f565b955095509550505050611160565b50508151600091506002905b9250925092565b600082600381111561117b5761117b6117cd565b03611184575050565b6001826003811115611198576111986117cd565b036111cf576040517ff645eedf00000000000000000000000000000000000000000000000000000000815260040160405180910390fd5b60028260038111156111e3576111e36117cd565b0361121d576040517ffce698f700000000000000000000000000000000000000000000000000000000815260048101829052602401610c0f565b6003826003811115611231576112316117cd565b0361126b576040517fd78bce0c00000000000000000000000000000000000000000000000000000000815260048101829052602401610c0f565b5050565b600080807f7fffffffffffffffffffffffffffffff5d576e7357a4501ddfe92f46681b20a08411156112aa5750600091506003905082611334565b604080516000808252602082018084528a905260ff891692820192909252606081018790526080810186905260019060a0016020604051602081039080840390855afa1580156112fe573d6000803e3d6000fd5b5050604051601f1901519150506001600160a01b03811661132a57506000925060019150829050611334565b9250600091508190505b9450945094915050565b80356001600160a01b038116811461135557600080fd5b919050565b60008083601f84011261136c57600080fd5b50813567ffffffffffffffff81111561138457600080fd5b60208301915083602082850101111561139c57600080fd5b9250929050565b600080600080600080608087890312156113bc57600080fd5b6113c58761133e565b955060208701359450604087013567ffffffffffffffff8111156113e857600080fd5b6113f489828a0161135a565b909550935050606087013567ffffffffffffffff81111561141457600080fd5b61142089828a0161135a565b979a9699509497509295939492505050565b60008060008060006060868803121561144a57600080fd5b6114538661133e565b9450602086013567ffffffffffffffff81111561146f57600080fd5b61147b8882890161135a565b909550935050604086013567ffffffffffffffff81111561149b57600080fd5b6114a78882890161135a565b969995985093965092949392505050565b600080600080600080600060a0888a0312156114d357600080fd5b6114dc8861133e565b96506114ea6020890161133e565b955060408801359450606088013567ffffffffffffffff81111561150d57600080fd5b6115198a828b0161135a565b909550935050608088013567ffffffffffffffff81111561153957600080fd5b6115458a828b0161135a565b989b979a50959850939692959293505050565b60006020828403121561156a57600080fd5b6115738261133e565b9392505050565b634e487b7160e01b600052604160045260246000fd5b600080604083850312156115a357600080fd5b6115ac8361133e565b9150602083013567ffffffffffffffff8111156115c857600080fd5b8301601f810185136115d957600080fd5b803567ffffffffffffffff8111156115f3576115f361157a565b604051601f8201601f19908116603f0116810167ffffffffffffffff811182821017156116225761162261157a565b60405281815282820160200187101561163a57600080fd5b816020840160208301376000602083830101528093505050509250929050565b60006020828403121561166c57600080fd5b5035919050565b8183823760009101908152919050565b81835281816020850137506000828201602090810191909152601f909101601f19169091010190565b8381526040602082015260006116c6604083018486611683565b95945050505050565b634e487b7160e01b600052601160045260246000fd5b8082028115828204841417611114576111146116cf565b60008261171957634e487b7160e01b600052601260045260246000fd5b500490565b60005b83811015611739578181015183820152602001611721565b50506000910152565b6001600160a01b0385168152606060208201526000845180606084015261177081608085016020890161171e565b601f01601f19168201828103608090810160408501526117939082018587611683565b979650505050505050565b600082516117b081846020870161171e565b9190910192915050565b80820180821115611114576111146116cf565b634e487b7160e01b600052602160045260246000fdfea26469706673582212202d82840c22302fd0c23df9d1026f3c35500c039f1ea65b0085da7983a6c2687564736f6c634300081c0033",
  "linkReferences": {},
  "deployedLinkReferences": {}
}