{
  "_format": "hh-sol-artifact-1",
  "contractName": "ChallengeRewards",
  "sourceName": "contracts/ChallengeRewards.sol",
  "abi": [
    {
      "inputs": [
        {
          "internalType": "address",
          "name": "_nocenite",
          "type": "address"
        },
        {
          "internalType": "address",
          "name": "_relayer",
          "type": "address"
        },
        {
          "internalType": "address",
          "name": "initialOwner",
          "type": "address"
        }
      ],
      "stateMutability": "nonpayable",
      "type": "constructor"
    },
    {
      "inputs": [],
      "name": "CooldownActive",
      "type": "error"
    },
    {
      "inputs": [],
      "name": "ECDSAInvalidSignature",
      "type": "error"
    },
    {
      "inputs": [
        {
          "internalType": "uint256",
          "name": "length",
          "type": "uint256"
        }
      ],
      "name": "ECDSAInvalidSignatureLength",
      "type": "error"
    },
    {
      "inputs": [
        {
          "internalType": "bytes32",
          "name": "s",
          "type": "bytes32"
        }
      ],
      "name": "ECDSAInvalidSignatureS",
      "type": "error"
    },
    {
      "inputs": [],
      "name": "EmptyIPFSHash",
      "type": "error"
    },
    {
      "inputs": [],
      "name": "IPFSHashAlreadyUsed",
      "type": "error"
    },
    {
      "inputs": [],
      "name": "InvalidSignature",
      "type": "error"
    },
    {
      "inputs": [],
      "name": "InvalidSignatureLength",
      "type": "error"
    },
    {
      "inputs": [],
      "name": "NotRelayer",
      "type": "error"
    },
    {
      "inputs": [
        {
          "internalType": "address",
          "name": "owner",
          "type": "address"
        }
      ],
      "name": "OwnableInvalidOwner",
      "type": "error"
    },
    {
      "inputs": [
        {
          "internalType": "address",
          "name": "account",
          "type": "address"
        }
      ],
      "name": "OwnableUnauthorizedAccount",
      "type": "error"
    },
    {
      "inputs": [],
      "name": "ReentrancyGuardReentrantCall",
      "type": "error"
    },
    {
      "inputs": [],
      "name": "SignatureAlreadyUsed",
      "type": "error"
    },
    {
      "inputs": [],
      "name": "ZeroAddress",
      "type": "error"
    },
    {
      "anonymous": false,
      "inputs": [
        {
          "indexed": true,
          "internalType": "address",
          "name": "user",
          "type": "address"
        },
        {
          "indexed": true,
          "internalType": "string",
          "name": "challengeType",
          "type": "string"
        },
        {
          "indexed": false,
          "internalType": "uint256",
          "name": "reward",
          "type": "uint256"
        },
        {
          "indexed": false,
          "internalType": "string",
          "name": "ipfsHash",
          "type": "string"
        }
      ],
      "name": "ChallengeCompleted",
      "type": "event"
    },
    {
      "anonymous": false,
      "inputs": [
        {
          "indexed": true,
          "internalType": "address",
          "name": "previousOwner",
          "type": "address"
        },
        {
          "indexed": true,
          "internalType": "address",
          "name": "newOwner",
          "type": "address"
        }
      ],
      "name": "OwnershipTransferred",
      "type": "event"
    },
    {
      "anonymous": false,
      "inputs": [
        {
          "indexed": true,
          "internalType": "address",
          "name": "oldRelayer",
          "type": "address"
        },
        {
          "indexed": true,
          "internalType": "address",
          "name": "newRelayer",
          "type": "address"
        }
      ],
      "name": "RelayerUpdated",
      "type": "event"
    },
    {
      "inputs": [],
      "name": "DAILY_REWARD",
      "outputs": [
        {
          "internalType": "uint256",
          "name": "",
          "type": "uint256"
        }
      ],
      "stateMutability": "view",
      "type": "function"
    },
    {
      "inputs": [],
      "name": "DAY_DURATION",
      "outputs": [
        {
          "internalType": "uint256",
          "name": "",
          "type": "uint256"
        }
      ],
      "stateMutability": "view",
      "type": "function"
    },
    {
      "inputs": [],
      "name": "MONTHLY_REWARD",
      "outputs": [
        {
          "internalType": "uint256",
          "name": "",
          "type": "uint256"
        }
      ],
      "stateMutability": "view",
      "type": "function"
    },
    {
      "inputs": [],
      "name": "MONTH_DURATION",
      "outputs": [
        {
          "internalType": "uint256",
          "name": "",
          "type": "uint256"
        }
      ],
      "stateMutability": "view",
      "type": "function"
    },
    {
      "inputs": [],
      "name": "WEEKLY_REWARD",
      "outputs": [
        {
          "internalType": "uint256",
          "name": "",
          "type": "uint256"
        }
      ],
      "stateMutability": "view",
      "type": "function"
    },
    {
      "inputs": [],
      "name": "WEEK_DURATION",
      "outputs": [
        {
          "internalType": "uint256",
          "name": "",
          "type": "uint256"
        }
      ],
      "stateMutability": "view",
      "type": "function"
    },
    {
      "inputs": [
        {
          "internalType": "address",
          "name": "user",
          "type": "address"
        },
        {
          "internalType": "string",
          "name": "ipfsHash",
          "type": "string"
        },
        {
          "internalType": "bytes",
          "name": "signature",
          "type": "bytes"
        }
      ],
      "name": "completeDailyChallenge",
      "outputs": [],
      "stateMutability": "nonpayable",
      "type": "function"
    },
    {
      "inputs": [
        {
          "internalType": "address",
          "name": "user",
          "type": "address"
        },
        {
          "internalType": "string",
          "name": "ipfsHash",
          "type": "string"
        },
        {
          "internalType": "bytes",
          "name": "signature",
          "type": "bytes"
        }
      ],
      "name": "completeMonthlyChallenge",
      "outputs": [],
      "stateMutability": "nonpayable",
      "type": "function"
    },
    {
      "inputs": [
        {
          "internalType": "address",
          "name": "user",
          "type": "address"
        },
        {
          "internalType": "string",
          "name": "ipfsHash",
          "type": "string"
        },
        {
          "internalType": "bytes",
          "name": "signature",
          "type": "bytes"
        }
      ],
      "name": "completeWeeklyChallenge",
      "outputs": [],
      "stateMutability": "nonpayable",
      "type": "function"
    },
    {
      "inputs": [
        {
          "internalType": "address",
          "name": "",
          "type": "address"
        },
        {
          "internalType": "string",
          "name": "",
          "type": "string"
        }
      ],
      "name": "lastClaim",
      "outputs": [
        {
          "internalType": "uint256",
          "name": "",
          "type": "uint256"
        }
      ],
      "stateMutability": "view",
      "type": "function"
    },
    {
      "inputs": [],
      "name": "nocenite",
      "outputs": [
        {
          "internalType": "contract Nocenite",
          "name": "",
          "type": "address"
        }
      ],
      "stateMutability": "view",
      "type": "function"
    },
    {
      "inputs": [],
      "name": "owner",
      "outputs": [
        {
          "internalType": "address",
          "name": "",
          "type": "address"
        }
      ],
      "stateMutability": "view",
      "type": "function"
    },
    {
      "inputs": [],
      "name": "relayer",
      "outputs": [
        {
          "internalType": "address",
          "name": "",
          "type": "address"
        }
      ],
      "stateMutability": "view",
      "type": "function"
    },
    {
      "inputs": [],
      "name": "renounceOwnership",
      "outputs": [],
      "stateMutability": "nonpayable",
      "type": "function"
    },
    {
      "inputs": [
        {
          "internalType": "address",
          "name": "newOwner",
          "type": "address"
        }
      ],
      "name": "transferOwnership",
      "outputs": [],
      "stateMutability": "nonpayable",
      "type": "function"
    },
    {
      "inputs": [
        {
          "internalType": "address",
          "name": "newRelayer",
          "type": "address"
        }
      ],
      "name": "updateRelayer",
      "outputs": [],
      "stateMutability": "nonpayable",
      "type": "function"
    },
    {
      "inputs": [
        {
          "internalType": "bytes32",
          "name": "",
          "type": "bytes32"
        }
      ],
      "name": "usedIPFSHashes",
      "outputs": [
        {
          "internalType": "bool",
          "name": "",
          "type": "bool"
        }
      ],
      "stateMutability": "view",
      "type": "function"
    },
    {
      "inputs": [
        {
          "internalType": "bytes32",
          "name": "",
          "type": "bytes32"
        }
      ],
      "name": "usedSignatures",
      "outputs": [
        {
          "internalType": "bool",
          "name": "",
          "type": "bool"
        }
      ],
      "stateMutability": "view",
      "type": "function"
    }
  ],
  "bytecode": "0x60a060405234801561001057600080fd5b5060405161105938038061105983398101604081905261002f9161013c565b806001600160a01b03811661005e57604051631e4fbdf760e01b81526000600482015260240160405180910390fd5b610067816100d0565b50600180556001600160a01b038316158061008957506001600160a01b038216155b156100a75760405163d92e233d60e01b815260040160405180910390fd5b506001600160a01b03918216608052600280546001600160a01b0319169190921617905561017f565b600080546001600160a01b038381166001600160a01b0319831681178455604051919092169283917f8be0079c531659141344cd1fd0a4f28419497f9722a3daafe3b4186f6b6457e09190a35050565b80516001600160a01b038116811461013757600080fd5b919050565b60008060006060848603121561015157600080fd5b61015a84610120565b925061016860208501610120565b915061017660408501610120565b90509250925092565b608051610eb86101a16000396000818161012001526106d50152610eb86000f3fe608060405234801561001057600080fd5b50600436106101165760003560e01c8063b560c7a5116100a2578063e573bbc511610071578063e573bbc514610225578063e91d855414610261578063e98c20ba14610271578063f2fde38b146102a4578063f978fd61146102b757600080fd5b8063b560c7a5146101e5578063be93b8db146101f8578063c72c238414610202578063cf5800ba1461021557600080fd5b8063715018a6116100e9578063715018a61461019c57806376f5f700146101a45780638406c079146101ae5780638da5cb5b146101c15780638f83ab13146101d257600080fd5b80631704a8821461011b5780632a8915341461015f578063505eef76146101775780636cbe14da1461018c575b600080fd5b6101427f000000000000000000000000000000000000000000000000000000000000000081565b6040516001600160a01b0390911681526020015b60405180910390f35b61016962278d0081565b604051908152602001610156565b61018a610185366004610bb3565b6102da565b005b61016968878678326eac90000081565b61018a610357565b61016962093a8081565b600254610142906001600160a01b031681565b6000546001600160a01b0316610142565b61018a6101e0366004610c39565b61036b565b61018a6101f3366004610bb3565b6103ec565b6101696201518081565b61018a610210366004610bb3565b61045a565b61016968056bc75e2d6310000081565b610169610233366004610c71565b6003602090815260009283526040909220815180830184018051928152908401929093019190912091525481565b610169681b1ae4d6e2ef50000081565b61029461027f366004610d3b565b60056020526000908152604090205460ff1681565b6040519015158152602001610156565b61018a6102b2366004610c39565b6104c6565b6102946102c5366004610d3b565b60046020526000908152604090205460ff1681565b6102e2610509565b6002546001600160a01b0316331461030d5760405163c64891a560e01b815260040160405180910390fd5b61034785604051806040016040528060068152602001657765656b6c7960d01b81525062093a80681b1ae4d6e2ef50000088888888610533565b61035060018055565b5050505050565b61035f610797565b61036960006107c4565b565b610373610797565b6001600160a01b03811661039a5760405163d92e233d60e01b815260040160405180910390fd5b600280546001600160a01b038381166001600160a01b0319831681179093556040519116919082907f605ca4e43489fb38b91aa63dd9147cd3847957694b080b9285ec898b34269f0c90600090a35050565b6103f4610509565b6002546001600160a01b0316331461041f5760405163c64891a560e01b815260040160405180910390fd5b61034785604051806040016040528060078152602001666d6f6e74686c7960c81b81525062278d0068878678326eac90000088888888610533565b610462610509565b6002546001600160a01b0316331461048d5760405163c64891a560e01b815260040160405180910390fd5b61034785604051806040016040528060058152602001646461696c7960d81b8152506201518068056bc75e2d6310000088888888610533565b6104ce610797565b6001600160a01b0381166104fd57604051631e4fbdf760e01b8152600060048201526024015b60405180910390fd5b610506816107c4565b50565b60026001540361052c57604051633ee5aeb560e01b815260040160405180910390fd5b6002600155565b6000839003610555576040516336225e2360e01b815260040160405180910390fd5b6041811461057657604051634be6321b60e01b815260040160405180910390fd5b6001600160a01b03881661059d5760405163d92e233d60e01b815260040160405180910390fd5b6001600160a01b0388166000908152600360205260409081902090518791906105c7908a90610d78565b9081526020016040518091039020546105e09190610d94565b4210156106005760405163aa9a98df60e01b815260040160405180910390fd5b61060e888886868686610814565b60008484604051610620929190610db5565b604080519182900390912060008181526005602052919091205490915060ff161561065e576040516374477eff60e01b815260040160405180910390fd5b6000818152600560209081526040808320805460ff191660011790556001600160a01b038c168352600390915290819020905142919061069f908b90610d78565b908152604051908190036020018120919091556340c10f1960e01b81526001600160a01b038a81166004830152602482018890527f000000000000000000000000000000000000000000000000000000000000000016906340c10f1990604401600060405180830381600087803b15801561071957600080fd5b505af115801561072d573d6000803e3d6000fd5b505050508760405161073f9190610d78565b6040518091039020896001600160a01b03167f72ebf7ead272df636bb09f7e8c3097106ae78585662f06d2be7777a128cb221588888860405161078493929190610dee565b60405180910390a3505050505050505050565b6000546001600160a01b031633146103695760405163118cdaa760e01b81523360048201526024016104f4565b600080546001600160a01b038381166001600160a01b0319831681178455604051919092169283917f8be0079c531659141344cd1fd0a4f28419497f9722a3daafe3b4186f6b6457e09190a35050565b60008686868660405160200161082d9493929190610e11565b604051602081830303815290604052805190602001209050600061087e827f19457468657265756d205369676e6564204d6573736167653a0a3332000000006000908152601c91909152603c902090565b600254604080516020601f88018190048102820181019092528681529293506001600160a01b03909116916108d091879087908190840183828082843760009201919091525086939250506109499050565b6001600160a01b0316146108f757604051638baa579f60e01b815260040160405180910390fd5b60008181526004602052604090205460ff16156109275760405163900bb2c960e01b815260040160405180910390fd5b6000908152600460205260409020805460ff1916600117905550505050505050565b6000806000806109598686610975565b92509250925061096982826109c2565b50909150505b92915050565b600080600083516041036109af5760208401516040850151606086015160001a6109a188828585610a7f565b9550955095505050506109bb565b50508151600091506002905b9250925092565b60008260038111156109d6576109d6610e6c565b036109df575050565b60018260038111156109f3576109f3610e6c565b03610a115760405163f645eedf60e01b815260040160405180910390fd5b6002826003811115610a2557610a25610e6c565b03610a465760405163fce698f760e01b8152600481018290526024016104f4565b6003826003811115610a5a57610a5a610e6c565b03610a7b576040516335e2f38360e21b8152600481018290526024016104f4565b5050565b600080807f7fffffffffffffffffffffffffffffff5d576e7357a4501ddfe92f46681b20a0841115610aba5750600091506003905082610b44565b604080516000808252602082018084528a905260ff891692820192909252606081018790526080810186905260019060a0016020604051602081039080840390855afa158015610b0e573d6000803e3d6000fd5b5050604051601f1901519150506001600160a01b038116610b3a57506000925060019150829050610b44565b9250600091508190505b9450945094915050565b80356001600160a01b0381168114610b6557600080fd5b919050565b60008083601f840112610b7c57600080fd5b50813567ffffffffffffffff811115610b9457600080fd5b602083019150836020828501011115610bac57600080fd5b9250929050565b600080600080600060608688031215610bcb57600080fd5b610bd486610b4e565b9450602086013567ffffffffffffffff811115610bf057600080fd5b610bfc88828901610b6a565b909550935050604086013567ffffffffffffffff811115610c1c57600080fd5b610c2888828901610b6a565b969995985093965092949392505050565b600060208284031215610c4b57600080fd5b610c5482610b4e565b9392505050565b634e487b7160e01b600052604160045260246000fd5b60008060408385031215610c8457600080fd5b610c8d83610b4e565b9150602083013567ffffffffffffffff811115610ca957600080fd5b8301601f81018513610cba57600080fd5b803567ffffffffffffffff811115610cd457610cd4610c5b565b604051601f8201601f19908116603f0116810167ffffffffffffffff81118282101715610d0357610d03610c5b565b604052818152828201602001871015610d1b57600080fd5b816020840160208301376000602083830101528093505050509250929050565b600060208284031215610d4d57600080fd5b5035919050565b60005b83811015610d6f578181015183820152602001610d57565b50506000910152565b60008251610d8a818460208701610d54565b9190910192915050565b8082018082111561096f57634e487b7160e01b600052601160045260246000fd5b8183823760009101908152919050565b81835281816020850137506000828201602090810191909152601f909101601f19169091010190565b838152604060208201526000610e08604083018486610dc5565b95945050505050565b60018060a01b03851681526060602082015260008451806060840152610e3e816080850160208901610d54565b601f01601f1916820182810360809081016040850152610e619082018587610dc5565b979650505050505050565b634e487b7160e01b600052602160045260246000fdfea2646970667358221220bf9ec677b05e7850d04bc93e01ac7b1952485326d93c9928bc84259900893de264736f6c634300081c0033",
  "linkReferences": {},
  "deployedLinkReferences": {}
}