{
  "_format": "hh-sol-artifact-1",
  "contractName": "Nocenite",
  "sourceName": "contracts/Nocenite.sol",
  "abi": [
    {
      "inputs": [
        {
          "internalType": "address",
          "name": "initialOwner",
          "type": "address"
        }
      ],
      "stateMutability": "nonpayable",
      "type": "constructor"
    },
    {
      "inputs": [],
      "name": "AmountMustBeGreaterThanZero",
      "type": "error"
    },
    {
      "inputs": [],
      "name": "CannotMintToZeroAddress",
      "type": "error"
    },
    {
      "inputs": [],
      "name": "CannotSetZeroAddressAsMinter",
      "type": "error"
    },
    {
      "inputs": [
        {
          "internalType": "address",
          "name": "spender",
          "type": "address"
        },
        {
          "internalType": "uint256",
          "name": "allowance",
          "type": "uint256"
        },
        {
          "internalType": "uint256",
          "name": "needed",
          "type": "uint256"
        }
      ],
      "name": "ERC20InsufficientAllowance",
      "type": "error"
    },
    {
      "inputs": [
        {
          "internalType": "address",
          "name": "sender",
          "type": "address"
        },
        {
          "internalType": "uint256",
          "name": "balance",
          "type": "uint256"
        },
        {
          "internalType": "uint256",
          "name": "needed",
          "type": "uint256"
        }
      ],
      "name": "ERC20InsufficientBalance",
      "type": "error"
    },
    {
      "inputs": [
        {
          "internalType": "address",
          "name": "approver",
          "type": "address"
        }
      ],
      "name": "ERC20InvalidApprover",
      "type": "error"
    },
    {
      "inputs": [
        {
          "internalType": "address",
          "name": "receiver",
          "type": "address"
        }
      ],
      "name": "ERC20InvalidReceiver",
      "type": "error"
    },
    {
      "inputs": [
        {
          "internalType": "address",
          "name": "sender",
          "type": "address"
        }
      ],
      "name": "ERC20InvalidSender",
      "type": "error"
    },
    {
      "inputs": [
        {
          "internalType": "address",
          "name": "spender",
          "type": "address"
        }
      ],
      "name": "ERC20InvalidSpender",
      "type": "error"
    },
    {
      "inputs": [],
      "name": "OnlyMinterCanMint",
      "type": "error"
    },
    {
      "inputs": [
        {
          "internalType": "address",
          "name": "owner",
          "type": "address"
        }
      ],
      "name": "OwnableInvalidOwner",
      "type": "error"
    },
    {
      "inputs": [
        {
          "internalType": "address",
          "name": "account",
          "type": "address"
        }
      ],
      "name": "OwnableUnauthorizedAccount",
      "type": "error"
    },
    {
      "inputs": [],
      "name": "OwnershipAlreadyRenounced",
      "type": "error"
    },
    {
      "anonymous": false,
      "inputs": [
        {
          "indexed": true,
          "internalType": "address",
          "name": "owner",
          "type": "address"
        },
        {
          "indexed": true,
          "internalType": "address",
          "name": "spender",
          "type": "address"
        },
        {
          "indexed": false,
          "internalType": "uint256",
          "name": "value",
          "type": "uint256"
        }
      ],
      "name": "Approval",
      "type": "event"
    },
    {
      "anonymous": false,
      "inputs": [
        {
          "indexed": true,
          "internalType": "address",
          "name": "minter",
          "type": "address"
        },
        {
          "indexed": false,
          "internalType": "bool",
          "name": "authorized",
          "type": "bool"
        }
      ],
      "name": "MinterUpdated",
      "type": "event"
    },
    {
      "anonymous": false,
      "inputs": [],
      "name": "OwnershipRenounced",
      "type": "event"
    },
    {
      "anonymous": false,
      "inputs": [
        {
          "indexed": true,
          "internalType": "address",
          "name": "previousOwner",
          "type": "address"
        },
        {
          "indexed": true,
          "internalType": "address",
          "name": "newOwner",
          "type": "address"
        }
      ],
      "name": "OwnershipTransferred",
      "type": "event"
    },
    {
      "anonymous": false,
      "inputs": [
        {
          "indexed": true,
          "internalType": "address",
          "name": "from",
          "type": "address"
        },
        {
          "indexed": true,
          "internalType": "address",
          "name": "to",
          "type": "address"
        },
        {
          "indexed": false,
          "internalType": "uint256",
          "name": "value",
          "type": "uint256"
        }
      ],
      "name": "Transfer",
      "type": "event"
    },
    {
      "inputs": [
        {
          "internalType": "address",
          "name": "_minter",
          "type": "address"
        }
      ],
      "name": "addMinter",
      "outputs": [],
      "stateMutability": "nonpayable",
      "type": "function"
    },
    {
      "inputs": [
        {
          "internalType": "address",
          "name": "owner",
          "type": "address"
        },
        {
          "internalType": "address",
          "name": "spender",
          "type": "address"
        }
      ],
      "name": "allowance",
      "outputs": [
        {
          "internalType": "uint256",
          "name": "",
          "type": "uint256"
        }
      ],
      "stateMutability": "view",
      "type": "function"
    },
    {
      "inputs": [
        {
          "internalType": "address",
          "name": "spender",
          "type": "address"
        },
        {
          "internalType": "uint256",
          "name": "value",
          "type": "uint256"
        }
      ],
      "name": "approve",
      "outputs": [
        {
          "internalType": "bool",
          "name": "",
          "type": "bool"
        }
      ],
      "stateMutability": "nonpayable",
      "type": "function"
    },
    {
      "inputs": [
        {
          "internalType": "address",
          "name": "",
          "type": "address"
        }
      ],
      "name": "authorizedMinters",
      "outputs": [
        {
          "internalType": "bool",
          "name": "",
          "type": "bool"
        }
      ],
      "stateMutability": "view",
      "type": "function"
    },
    {
      "inputs": [
        {
          "internalType": "address",
          "name": "account",
          "type": "address"
        }
      ],
      "name": "balanceOf",
      "outputs": [
        {
          "internalType": "uint256",
          "name": "",
          "type": "uint256"
        }
      ],
      "stateMutability": "view",
      "type": "function"
    },
    {
      "inputs": [],
      "name": "decimals",
      "outputs": [
        {
          "internalType": "uint8",
          "name": "",
          "type": "uint8"
        }
      ],
      "stateMutability": "view",
      "type": "function"
    },
    {
      "inputs": [
        {
          "internalType": "address",
          "name": "to",
          "type": "address"
        },
        {
          "internalType": "uint256",
          "name": "amount",
          "type": "uint256"
        }
      ],
      "name": "mint",
      "outputs": [],
      "stateMutability": "nonpayable",
      "type": "function"
    },
    {
      "inputs": [],
      "name": "name",
      "outputs": [
        {
          "internalType": "string",
          "name": "",
          "type": "string"
        }
      ],
      "stateMutability": "view",
      "type": "function"
    },
    {
      "inputs": [],
      "name": "owner",
      "outputs": [
        {
          "internalType": "address",
          "name": "",
          "type": "address"
        }
      ],
      "stateMutability": "view",
      "type": "function"
    },
    {
      "inputs": [],
      "name": "ownershipRenounced",
      "outputs": [
        {
          "internalType": "bool",
          "name": "",
          "type": "bool"
        }
      ],
      "stateMutability": "view",
      "type": "function"
    },
    {
      "inputs": [],
      "name": "renounceOwnership",
      "outputs": [],
      "stateMutability": "nonpayable",
      "type": "function"
    },
    {
      "inputs": [
        {
          "internalType": "address",
          "name": "_minter",
          "type": "address"
        },
        {
          "internalType": "bool",
          "name": "_authorized",
          "type": "bool"
        }
      ],
      "name": "setMinter",
      "outputs": [],
      "stateMutability": "nonpayable",
      "type": "function"
    },
    {
      "inputs": [],
      "name": "symbol",
      "outputs": [
        {
          "internalType": "string",
          "name": "",
          "type": "string"
        }
      ],
      "stateMutability": "view",
      "type": "function"
    },
    {
      "inputs": [],
      "name": "totalSupply",
      "outputs": [
        {
          "internalType": "uint256",
          "name": "",
          "type": "uint256"
        }
      ],
      "stateMutability": "view",
      "type": "function"
    },
    {
      "inputs": [
        {
          "internalType": "address",
          "name": "to",
          "type": "address"
        },
        {
          "internalType": "uint256",
          "name": "value",
          "type": "uint256"
        }
      ],
      "name": "transfer",
      "outputs": [
        {
          "internalType": "bool",
          "name": "",
          "type": "bool"
        }
      ],
      "stateMutability": "nonpayable",
      "type": "function"
    },
    {
      "inputs": [
        {
          "internalType": "address",
          "name": "from",
          "type": "address"
        },
        {
          "internalType": "address",
          "name": "to",
          "type": "address"
        },
        {
          "internalType": "uint256",
          "name": "value",
          "type": "uint256"
        }
      ],
      "name": "transferFrom",
      "outputs": [
        {
          "internalType": "bool",
          "name": "",
          "type": "bool"
        }
      ],
      "stateMutability": "nonpayable",
      "type": "function"
    },
    {
      "inputs": [
        {
          "internalType": "address",
          "name": "newOwner",
          "type": "address"
        }
      ],
      "name": "transferOwnership",
      "outputs": [],
      "stateMutability": "nonpayable",
      "type": "function"
    }
  ],
  "bytecode": "0x60806040526007805460ff1916905534801561001a57600080fd5b50604051610f8e380380610f8e83398101604081905261003991610126565b80604051806040016040528060088152602001674e6f63656e69746560c01b815250604051806040016040528060038152602001621390d560ea1b815250816003908161008691906101f5565b50600461009382826101f5565b5050506001600160a01b0381166100c457604051631e4fbdf760e01b81526000600482015260240160405180910390fd5b6100cd816100d4565b50506102b3565b600580546001600160a01b038381166001600160a01b0319831681179093556040519116919082907f8be0079c531659141344cd1fd0a4f28419497f9722a3daafe3b4186f6b6457e090600090a35050565b60006020828403121561013857600080fd5b81516001600160a01b038116811461014f57600080fd5b9392505050565b634e487b7160e01b600052604160045260246000fd5b600181811c9082168061018057607f821691505b6020821081036101a057634e487b7160e01b600052602260045260246000fd5b50919050565b601f8211156101f057806000526020600020601f840160051c810160208510156101cd5750805b601f840160051c820191505b818110156101ed57600081556001016101d9565b50505b505050565b81516001600160401b0381111561020e5761020e610156565b6102228161021c845461016c565b846101a6565b6020601f821160018114610256576000831561023e5750848201515b600019600385901b1c1916600184901b1784556101ed565b600084815260208120601f198516915b828110156102865787850151825560209485019460019092019101610266565b50848210156102a45786840151600019600387901b60f8161c191681555b50505050600190811b01905550565b610ccc806102c26000396000f3fe608060405234801561001057600080fd5b506004361061011b5760003560e01c80638da5cb5b116100b2578063a9059cbb11610081578063cf456ae711610066578063cf456ae714610254578063dd62ed3e14610267578063f2fde38b146102a057600080fd5b8063a9059cbb1461021e578063aa2fe91b1461023157600080fd5b80638da5cb5b146101db5780639004a8bb146101f657806395d89b4114610203578063983b2d561461020b57600080fd5b8063313ce567116100ee578063313ce5671461018657806340c10f191461019557806370a08231146101aa578063715018a6146101d357600080fd5b806306fdde0314610120578063095ea7b31461013e57806318160ddd1461016157806323b872dd14610173575b600080fd5b6101286102b3565b6040516101359190610ad9565b60405180910390f35b61015161014c366004610b43565b610345565b6040519015158152602001610135565b6002545b604051908152602001610135565b610151610181366004610b6d565b61035f565b60405160128152602001610135565b6101a86101a3366004610b43565b610383565b005b6101656101b8366004610baa565b6001600160a01b031660009081526020819052604090205490565b6101a8610454565b6005546040516001600160a01b039091168152602001610135565b6007546101519060ff1681565b61012861049c565b6101a8610219366004610baa565b6104ab565b61015161022c366004610b43565b61055b565b61015161023f366004610baa565b60066020526000908152604090205460ff1681565b6101a8610262366004610bcc565b610569565b610165610275366004610c08565b6001600160a01b03918216600090815260016020908152604080832093909416825291909152205490565b6101a86102ae366004610baa565b61061b565b6060600380546102c290610c3b565b80601f01602080910402602001604051908101604052809291908181526020018280546102ee90610c3b565b801561033b5780601f106103105761010080835404028352916020019161033b565b820191906000526020600020905b81548152906001019060200180831161031e57829003601f168201915b5050505050905090565b600033610353818585610677565b60019150505b92915050565b60003361036d858285610689565b610378858585610721565b506001949350505050565b3360009081526006602052604090205460ff166103cc576040517f045241dd00000000000000000000000000000000000000000000000000000000815260040160405180910390fd5b6001600160a01b03821661040c576040517f89a4ea1900000000000000000000000000000000000000000000000000000000815260040160405180910390fd5b80600003610446576040517f5e85ae7300000000000000000000000000000000000000000000000000000000815260040160405180910390fd5b6104508282610799565b5050565b61045c6107cf565b6007805460ff19166001179055610471610817565b6040517fd1f66c3d2bc1993a86be5e3d33709d98f0442381befcedd29f578b9b2506b1ce90600090a1565b6060600480546102c290610c3b565b6104b36107cf565b6001600160a01b0381166104da5760405163256b243160e21b815260040160405180910390fd5b60075460ff16156104fe5760405163d1503fd160e01b815260040160405180910390fd5b6001600160a01b038116600081815260066020908152604091829020805460ff1916600190811790915591519182527fb21afb9ce9be0a676f8f317ff0ca072fb89a4f8ce2d1b6fe80f8755c14f1cb19910160405180910390a250565b600033610353818585610721565b6105716107cf565b6001600160a01b0382166105985760405163256b243160e21b815260040160405180910390fd5b60075460ff16156105bc5760405163d1503fd160e01b815260040160405180910390fd5b6001600160a01b038216600081815260066020908152604091829020805460ff191685151590811790915591519182527fb21afb9ce9be0a676f8f317ff0ca072fb89a4f8ce2d1b6fe80f8755c14f1cb19910160405180910390a25050565b6106236107cf565b6001600160a01b03811661066b576040517f1e4fbdf7000000000000000000000000000000000000000000000000000000008152600060048201526024015b60405180910390fd5b61067481610825565b50565b610684838383600161088f565b505050565b6001600160a01b0383811660009081526001602090815260408083209386168352929052205460001981101561071b578181101561070c576040517ffb8f41b20000000000000000000000000000000000000000000000000000000081526001600160a01b03841660048201526024810182905260448101839052606401610662565b61071b8484848403600061088f565b50505050565b6001600160a01b038316610764576040517f96c6fd1e00000000000000000000000000000000000000000000000000000000815260006004820152602401610662565b6001600160a01b03821661078e5760405163ec442f0560e01b815260006004820152602401610662565b610684838383610996565b6001600160a01b0382166107c35760405163ec442f0560e01b815260006004820152602401610662565b61045060008383610996565b6005546001600160a01b03163314610815576040517f118cdaa7000000000000000000000000000000000000000000000000000000008152336004820152602401610662565b565b61081f6107cf565b61081560005b600580546001600160a01b038381167fffffffffffffffffffffffff0000000000000000000000000000000000000000831681179093556040519116919082907f8be0079c531659141344cd1fd0a4f28419497f9722a3daafe3b4186f6b6457e090600090a35050565b6001600160a01b0384166108d2576040517fe602df0500000000000000000000000000000000000000000000000000000000815260006004820152602401610662565b6001600160a01b038316610915576040517f94280d6200000000000000000000000000000000000000000000000000000000815260006004820152602401610662565b6001600160a01b038085166000908152600160209081526040808320938716835292905220829055801561071b57826001600160a01b0316846001600160a01b03167f8c5be1e5ebec7d5bd14f71427d1e84f3dd0314c0f7b2291e5b200ac8c7c3b9258460405161098891815260200190565b60405180910390a350505050565b6001600160a01b0383166109c15780600260008282546109b69190610c75565b90915550610a4c9050565b6001600160a01b03831660009081526020819052604090205481811015610a2d576040517fe450d38c0000000000000000000000000000000000000000000000000000000081526001600160a01b03851660048201526024810182905260448101839052606401610662565b6001600160a01b03841660009081526020819052604090209082900390555b6001600160a01b038216610a6857600280548290039055610a87565b6001600160a01b03821660009081526020819052604090208054820190555b816001600160a01b0316836001600160a01b03167fddf252ad1be2c89b69c2b068fc378daa952ba7f163c4a11628f55a4df523b3ef83604051610acc91815260200190565b60405180910390a3505050565b602081526000825180602084015260005b81811015610b075760208186018101516040868401015201610aea565b506000604082850101526040601f19601f83011684010191505092915050565b80356001600160a01b0381168114610b3e57600080fd5b919050565b60008060408385031215610b5657600080fd5b610b5f83610b27565b946020939093013593505050565b600080600060608486031215610b8257600080fd5b610b8b84610b27565b9250610b9960208501610b27565b929592945050506040919091013590565b600060208284031215610bbc57600080fd5b610bc582610b27565b9392505050565b60008060408385031215610bdf57600080fd5b610be883610b27565b915060208301358015158114610bfd57600080fd5b809150509250929050565b60008060408385031215610c1b57600080fd5b610c2483610b27565b9150610c3260208401610b27565b90509250929050565b600181811c90821680610c4f57607f821691505b602082108103610c6f57634e487b7160e01b600052602260045260246000fd5b50919050565b8082018082111561035957634e487b7160e01b600052601160045260246000fdfea26469706673582212208c14fd51b9e5c14a10472867efeaccc6a5189e1b0cfa9a9f2571e78501cb534a64736f6c634300081c0033",
  "linkReferences": {},
  "deployedLinkReferences": {}
}