{
  "_format": "hh-sol-artifact-1",
  "contractName": "Nocenite",
  "sourceName": "contracts/Nocenite.sol",
  "abi": [
    {
      "inputs": [
        {
          "internalType": "address",
          "name": "initialOwner",
          "type": "address"
        }
      ],
      "stateMutability": "nonpayable",
      "type": "constructor"
    },
    {
      "inputs": [],
      "name": "AmountMustBeGreaterThanZero",
      "type": "error"
    },
    {
      "inputs": [],
      "name": "CannotMintToZeroAddress",
      "type": "error"
    },
    {
      "inputs": [],
      "name": "CannotSetZeroAddressAsMinter",
      "type": "error"
    },
    {
      "inputs": [
        {
          "internalType": "address",
          "name": "spender",
          "type": "address"
        },
        {
          "internalType": "uint256",
          "name": "allowance",
          "type": "uint256"
        },
        {
          "internalType": "uint256",
          "name": "needed",
          "type": "uint256"
        }
      ],
      "name": "ERC20InsufficientAllowance",
      "type": "error"
    },
    {
      "inputs": [
        {
          "internalType": "address",
          "name": "sender",
          "type": "address"
        },
        {
          "internalType": "uint256",
          "name": "balance",
          "type": "uint256"
        },
        {
          "internalType": "uint256",
          "name": "needed",
          "type": "uint256"
        }
      ],
      "name": "ERC20InsufficientBalance",
      "type": "error"
    },
    {
      "inputs": [
        {
          "internalType": "address",
          "name": "approver",
          "type": "address"
        }
      ],
      "name": "ERC20InvalidApprover",
      "type": "error"
    },
    {
      "inputs": [
        {
          "internalType": "address",
          "name": "receiver",
          "type": "address"
        }
      ],
      "name": "ERC20InvalidReceiver",
      "type": "error"
    },
    {
      "inputs": [
        {
          "internalType": "address",
          "name": "sender",
          "type": "address"
        }
      ],
      "name": "ERC20InvalidSender",
      "type": "error"
    },
    {
      "inputs": [
        {
          "internalType": "address",
          "name": "spender",
          "type": "address"
        }
      ],
      "name": "ERC20InvalidSpender",
      "type": "error"
    },
    {
      "inputs": [],
      "name": "MustSetMinterFirst",
      "type": "error"
    },
    {
      "inputs": [],
      "name": "OnlyMinterCanMint",
      "type": "error"
    },
    {
      "inputs": [
        {
          "internalType": "address",
          "name": "owner",
          "type": "address"
        }
      ],
      "name": "OwnableInvalidOwner",
      "type": "error"
    },
    {
      "inputs": [
        {
          "internalType": "address",
          "name": "account",
          "type": "address"
        }
      ],
      "name": "OwnableUnauthorizedAccount",
      "type": "error"
    },
    {
      "inputs": [],
      "name": "OwnershipAlreadyRenounced",
      "type": "error"
    },
    {
      "anonymous": false,
      "inputs": [
        {
          "indexed": true,
          "internalType": "address",
          "name": "owner",
          "type": "address"
        },
        {
          "indexed": true,
          "internalType": "address",
          "name": "spender",
          "type": "address"
        },
        {
          "indexed": false,
          "internalType": "uint256",
          "name": "value",
          "type": "uint256"
        }
      ],
      "name": "Approval",
      "type": "event"
    },
    {
      "anonymous": false,
      "inputs": [
        {
          "indexed": true,
          "internalType": "address",
          "name": "minter",
          "type": "address"
        }
      ],
      "name": "MinterSet",
      "type": "event"
    },
    {
      "anonymous": false,
      "inputs": [],
      "name": "OwnershipRenounced",
      "type": "event"
    },
    {
      "anonymous": false,
      "inputs": [
        {
          "indexed": true,
          "internalType": "address",
          "name": "previousOwner",
          "type": "address"
        },
        {
          "indexed": true,
          "internalType": "address",
          "name": "newOwner",
          "type": "address"
        }
      ],
      "name": "OwnershipTransferred",
      "type": "event"
    },
    {
      "anonymous": false,
      "inputs": [
        {
          "indexed": true,
          "internalType": "address",
          "name": "from",
          "type": "address"
        },
        {
          "indexed": true,
          "internalType": "address",
          "name": "to",
          "type": "address"
        },
        {
          "indexed": false,
          "internalType": "uint256",
          "name": "value",
          "type": "uint256"
        }
      ],
      "name": "Transfer",
      "type": "event"
    },
    {
      "inputs": [
        {
          "internalType": "address",
          "name": "owner",
          "type": "address"
        },
        {
          "internalType": "address",
          "name": "spender",
          "type": "address"
        }
      ],
      "name": "allowance",
      "outputs": [
        {
          "internalType": "uint256",
          "name": "",
          "type": "uint256"
        }
      ],
      "stateMutability": "view",
      "type": "function"
    },
    {
      "inputs": [
        {
          "internalType": "address",
          "name": "spender",
          "type": "address"
        },
        {
          "internalType": "uint256",
          "name": "value",
          "type": "uint256"
        }
      ],
      "name": "approve",
      "outputs": [
        {
          "internalType": "bool",
          "name": "",
          "type": "bool"
        }
      ],
      "stateMutability": "nonpayable",
      "type": "function"
    },
    {
      "inputs": [
        {
          "internalType": "address",
          "name": "account",
          "type": "address"
        }
      ],
      "name": "balanceOf",
      "outputs": [
        {
          "internalType": "uint256",
          "name": "",
          "type": "uint256"
        }
      ],
      "stateMutability": "view",
      "type": "function"
    },
    {
      "inputs": [],
      "name": "decimals",
      "outputs": [
        {
          "internalType": "uint8",
          "name": "",
          "type": "uint8"
        }
      ],
      "stateMutability": "view",
      "type": "function"
    },
    {
      "inputs": [
        {
          "internalType": "address",
          "name": "to",
          "type": "address"
        },
        {
          "internalType": "uint256",
          "name": "amount",
          "type": "uint256"
        }
      ],
      "name": "mint",
      "outputs": [],
      "stateMutability": "nonpayable",
      "type": "function"
    },
    {
      "inputs": [],
      "name": "minter",
      "outputs": [
        {
          "internalType": "address",
          "name": "",
          "type": "address"
        }
      ],
      "stateMutability": "view",
      "type": "function"
    },
    {
      "inputs": [],
      "name": "name",
      "outputs": [
        {
          "internalType": "string",
          "name": "",
          "type": "string"
        }
      ],
      "stateMutability": "view",
      "type": "function"
    },
    {
      "inputs": [],
      "name": "owner",
      "outputs": [
        {
          "internalType": "address",
          "name": "",
          "type": "address"
        }
      ],
      "stateMutability": "view",
      "type": "function"
    },
    {
      "inputs": [],
      "name": "ownershipRenounced",
      "outputs": [
        {
          "internalType": "bool",
          "name": "",
          "type": "bool"
        }
      ],
      "stateMutability": "view",
      "type": "function"
    },
    {
      "inputs": [],
      "name": "renounceOwnership",
      "outputs": [],
      "stateMutability": "nonpayable",
      "type": "function"
    },
    {
      "inputs": [
        {
          "internalType": "address",
          "name": "_minter",
          "type": "address"
        }
      ],
      "name": "setMinter",
      "outputs": [],
      "stateMutability": "nonpayable",
      "type": "function"
    },
    {
      "inputs": [],
      "name": "symbol",
      "outputs": [
        {
          "internalType": "string",
          "name": "",
          "type": "string"
        }
      ],
      "stateMutability": "view",
      "type": "function"
    },
    {
      "inputs": [],
      "name": "totalSupply",
      "outputs": [
        {
          "internalType": "uint256",
          "name": "",
          "type": "uint256"
        }
      ],
      "stateMutability": "view",
      "type": "function"
    },
    {
      "inputs": [
        {
          "internalType": "address",
          "name": "to",
          "type": "address"
        },
        {
          "internalType": "uint256",
          "name": "value",
          "type": "uint256"
        }
      ],
      "name": "transfer",
      "outputs": [
        {
          "internalType": "bool",
          "name": "",
          "type": "bool"
        }
      ],
      "stateMutability": "nonpayable",
      "type": "function"
    },
    {
      "inputs": [
        {
          "internalType": "address",
          "name": "from",
          "type": "address"
        },
        {
          "internalType": "address",
          "name": "to",
          "type": "address"
        },
        {
          "internalType": "uint256",
          "name": "value",
          "type": "uint256"
        }
      ],
      "name": "transferFrom",
      "outputs": [
        {
          "internalType": "bool",
          "name": "",
          "type": "bool"
        }
      ],
      "stateMutability": "nonpayable",
      "type": "function"
    },
    {
      "inputs": [
        {
          "internalType": "address",
          "name": "newOwner",
          "type": "address"
        }
      ],
      "name": "transferOwnership",
      "outputs": [],
      "stateMutability": "nonpayable",
      "type": "function"
    }
  ],
  "bytecode": "0x60806040526006805460ff60a01b1916905534801561001d57600080fd5b50604051610f00380380610f0083398101604081905261003c91610129565b80604051806040016040528060088152602001674e6f63656e69746560c01b815250604051806040016040528060038152602001621390d560ea1b815250816003908161008991906101f8565b50600461009682826101f8565b5050506001600160a01b0381166100c757604051631e4fbdf760e01b81526000600482015260240160405180910390fd5b6100d0816100d7565b50506102b6565b600580546001600160a01b038381166001600160a01b0319831681179093556040519116919082907f8be0079c531659141344cd1fd0a4f28419497f9722a3daafe3b4186f6b6457e090600090a35050565b60006020828403121561013b57600080fd5b81516001600160a01b038116811461015257600080fd5b9392505050565b634e487b7160e01b600052604160045260246000fd5b600181811c9082168061018357607f821691505b6020821081036101a357634e487b7160e01b600052602260045260246000fd5b50919050565b601f8211156101f357806000526020600020601f840160051c810160208510156101d05750805b601f840160051c820191505b818110156101f057600081556001016101dc565b50505b505050565b81516001600160401b0381111561021157610211610159565b6102258161021f845461016f565b846101a9565b6020601f82116001811461025957600083156102415750848201515b600019600385901b1c1916600184901b1784556101f0565b600084815260208120601f198516915b828110156102895787850151825560209485019460019092019101610269565b50848210156102a75786840151600019600387901b60f8161c191681555b50505050600190811b01905550565b610c3b806102c56000396000f3fe608060405234801561001057600080fd5b50600436106101005760003560e01c8063715018a611610097578063a9059cbb11610066578063a9059cbb14610218578063dd62ed3e1461022b578063f2fde38b14610264578063fca3b5aa1461027757600080fd5b8063715018a6146101e35780638da5cb5b146101eb5780639004a8bb146101fc57806395d89b411461021057600080fd5b806323b872dd116100d357806323b872dd14610183578063313ce5671461019657806340c10f19146101a557806370a08231146101ba57600080fd5b806306fdde03146101055780630754617214610123578063095ea7b31461014e57806318160ddd14610171575b600080fd5b61010d61028a565b60405161011a9190610a84565b60405180910390f35b600654610136906001600160a01b031681565b6040516001600160a01b03909116815260200161011a565b61016161015c366004610aee565b61031c565b604051901515815260200161011a565b6002545b60405190815260200161011a565b610161610191366004610b18565b610336565b6040516012815260200161011a565b6101b86101b3366004610aee565b61035a565b005b6101756101c8366004610b55565b6001600160a01b031660009081526020819052604090205490565b6101b8610426565b6005546001600160a01b0316610136565b60065461016190600160a01b900460ff1681565b61010d6104d1565b610161610226366004610aee565b6104e0565b610175610239366004610b77565b6001600160a01b03918216600090815260016020908152604080832093909416825291909152205490565b6101b8610272366004610b55565b6104ee565b6101b8610285366004610b55565b61054a565b60606003805461029990610baa565b80601f01602080910402602001604051908101604052809291908181526020018280546102c590610baa565b80156103125780601f106102e757610100808354040283529160200191610312565b820191906000526020600020905b8154815290600101906020018083116102f557829003601f168201915b5050505050905090565b60003361032a81858561062d565b60019150505b92915050565b60003361034485828561063f565b61034f8585856106d7565b506001949350505050565b6006546001600160a01b0316331461039e576040517f045241dd00000000000000000000000000000000000000000000000000000000815260040160405180910390fd5b6001600160a01b0382166103de576040517f89a4ea1900000000000000000000000000000000000000000000000000000000815260040160405180910390fd5b80600003610418576040517f5e85ae7300000000000000000000000000000000000000000000000000000000815260040160405180910390fd5b610422828261074f565b5050565b61042e610785565b6006546001600160a01b0316610470576040517f5672c93500000000000000000000000000000000000000000000000000000000815260040160405180910390fd5b600680547fffffffffffffffffffffff00ffffffffffffffffffffffffffffffffffffffff16600160a01b1790556104a66107cd565b6040517fd1f66c3d2bc1993a86be5e3d33709d98f0442381befcedd29f578b9b2506b1ce90600090a1565b60606004805461029990610baa565b60003361032a8185856106d7565b6104f6610785565b6001600160a01b03811661053e576040517f1e4fbdf7000000000000000000000000000000000000000000000000000000008152600060048201526024015b60405180910390fd5b610547816107db565b50565b610552610785565b6001600160a01b038116610592576040517f95ac90c400000000000000000000000000000000000000000000000000000000815260040160405180910390fd5b600654600160a01b900460ff16156105d6576040517fd1503fd100000000000000000000000000000000000000000000000000000000815260040160405180910390fd5b6006805473ffffffffffffffffffffffffffffffffffffffff19166001600160a01b0383169081179091556040517f726b590ef91a8c76ad05bbe91a57ef84605276528f49cd47d787f558a4e755b690600090a250565b61063a838383600161083a565b505050565b6001600160a01b038381166000908152600160209081526040808320938616835292905220546000198110156106d157818110156106c2576040517ffb8f41b20000000000000000000000000000000000000000000000000000000081526001600160a01b03841660048201526024810182905260448101839052606401610535565b6106d18484848403600061083a565b50505050565b6001600160a01b03831661071a576040517f96c6fd1e00000000000000000000000000000000000000000000000000000000815260006004820152602401610535565b6001600160a01b0382166107445760405163ec442f0560e01b815260006004820152602401610535565b61063a838383610941565b6001600160a01b0382166107795760405163ec442f0560e01b815260006004820152602401610535565b61042260008383610941565b6005546001600160a01b031633146107cb576040517f118cdaa7000000000000000000000000000000000000000000000000000000008152336004820152602401610535565b565b6107d5610785565b6107cb60005b600580546001600160a01b0383811673ffffffffffffffffffffffffffffffffffffffff19831681179093556040519116919082907f8be0079c531659141344cd1fd0a4f28419497f9722a3daafe3b4186f6b6457e090600090a35050565b6001600160a01b03841661087d576040517fe602df0500000000000000000000000000000000000000000000000000000000815260006004820152602401610535565b6001600160a01b0383166108c0576040517f94280d6200000000000000000000000000000000000000000000000000000000815260006004820152602401610535565b6001600160a01b03808516600090815260016020908152604080832093871683529290522082905580156106d157826001600160a01b0316846001600160a01b03167f8c5be1e5ebec7d5bd14f71427d1e84f3dd0314c0f7b2291e5b200ac8c7c3b9258460405161093391815260200190565b60405180910390a350505050565b6001600160a01b03831661096c5780600260008282546109619190610be4565b909155506109f79050565b6001600160a01b038316600090815260208190526040902054818110156109d8576040517fe450d38c0000000000000000000000000000000000000000000000000000000081526001600160a01b03851660048201526024810182905260448101839052606401610535565b6001600160a01b03841660009081526020819052604090209082900390555b6001600160a01b038216610a1357600280548290039055610a32565b6001600160a01b03821660009081526020819052604090208054820190555b816001600160a01b0316836001600160a01b03167fddf252ad1be2c89b69c2b068fc378daa952ba7f163c4a11628f55a4df523b3ef83604051610a7791815260200190565b60405180910390a3505050565b602081526000825180602084015260005b81811015610ab25760208186018101516040868401015201610a95565b506000604082850101526040601f19601f83011684010191505092915050565b80356001600160a01b0381168114610ae957600080fd5b919050565b60008060408385031215610b0157600080fd5b610b0a83610ad2565b946020939093013593505050565b600080600060608486031215610b2d57600080fd5b610b3684610ad2565b9250610b4460208501610ad2565b929592945050506040919091013590565b600060208284031215610b6757600080fd5b610b7082610ad2565b9392505050565b60008060408385031215610b8a57600080fd5b610b9383610ad2565b9150610ba160208401610ad2565b90509250929050565b600181811c90821680610bbe57607f821691505b602082108103610bde57634e487b7160e01b600052602260045260246000fd5b50919050565b8082018082111561033057634e487b7160e01b600052601160045260246000fdfea2646970667358221220c98a1cf7ae13f5b0c80447c0bd9fd5926dcafeacf89e72fe2492068af01ae08864736f6c634300081c0033",
  "linkReferences": {},
  "deployedLinkReferences": {}
}