{
  "_format": "hh-sol-artifact-1",
  "contractName": "SocialRewards",
  "sourceName": "contracts/SocialRewards.sol",
  "abi": [
    {
      "inputs": [
        {
          "internalType": "address",
          "name": "_nocenite",
          "type": "address"
        },
        {
          "internalType": "address",
          "name": "_relayer",
          "type": "address"
        },
        {
          "internalType": "address",
          "name": "initialOwner",
          "type": "address"
        }
      ],
      "stateMutability": "nonpayable",
      "type": "constructor"
    },
    {
      "inputs": [],
      "name": "AmountExceedsMaximum",
      "type": "error"
    },
    {
      "inputs": [],
      "name": "ArrayLengthMismatch",
      "type": "error"
    },
    {
      "inputs": [],
      "name": "BatchSizeExceedsLimit",
      "type": "error"
    },
    {
      "inputs": [],
      "name": "ECDSAInvalidSignature",
      "type": "error"
    },
    {
      "inputs": [
        {
          "internalType": "uint256",
          "name": "length",
          "type": "uint256"
        }
      ],
      "name": "ECDSAInvalidSignatureLength",
      "type": "error"
    },
    {
      "inputs": [
        {
          "internalType": "bytes32",
          "name": "s",
          "type": "bytes32"
        }
      ],
      "name": "ECDSAInvalidSignatureS",
      "type": "error"
    },
    {
      "inputs": [],
      "name": "InvalidSignature",
      "type": "error"
    },
    {
      "inputs": [],
      "name": "InvalidSignatureLength",
      "type": "error"
    },
    {
      "inputs": [],
      "name": "NotRelayer",
      "type": "error"
    },
    {
      "inputs": [
        {
          "internalType": "address",
          "name": "owner",
          "type": "address"
        }
      ],
      "name": "OwnableInvalidOwner",
      "type": "error"
    },
    {
      "inputs": [
        {
          "internalType": "address",
          "name": "account",
          "type": "address"
        }
      ],
      "name": "OwnableUnauthorizedAccount",
      "type": "error"
    },
    {
      "inputs": [],
      "name": "ReentrancyGuardReentrantCall",
      "type": "error"
    },
    {
      "inputs": [],
      "name": "SignatureAlreadyUsed",
      "type": "error"
    },
    {
      "inputs": [],
      "name": "ZeroAddress",
      "type": "error"
    },
    {
      "anonymous": false,
      "inputs": [
        {
          "indexed": true,
          "internalType": "address",
          "name": "previousOwner",
          "type": "address"
        },
        {
          "indexed": true,
          "internalType": "address",
          "name": "newOwner",
          "type": "address"
        }
      ],
      "name": "OwnershipTransferred",
      "type": "event"
    },
    {
      "anonymous": false,
      "inputs": [
        {
          "indexed": true,
          "internalType": "address",
          "name": "oldRelayer",
          "type": "address"
        },
        {
          "indexed": true,
          "internalType": "address",
          "name": "newRelayer",
          "type": "address"
        }
      ],
      "name": "RelayerUpdated",
      "type": "event"
    },
    {
      "anonymous": false,
      "inputs": [
        {
          "indexed": false,
          "internalType": "uint256",
          "name": "count",
          "type": "uint256"
        },
        {
          "indexed": false,
          "internalType": "uint256",
          "name": "totalRewards",
          "type": "uint256"
        }
      ],
      "name": "SocialRewardsBatched",
      "type": "event"
    },
    {
      "inputs": [],
      "name": "MAX_BATCH_SIZE",
      "outputs": [
        {
          "internalType": "uint256",
          "name": "",
          "type": "uint256"
        }
      ],
      "stateMutability": "view",
      "type": "function"
    },
    {
      "inputs": [],
      "name": "MAX_INTERACTION_REWARD",
      "outputs": [
        {
          "internalType": "uint256",
          "name": "",
          "type": "uint256"
        }
      ],
      "stateMutability": "view",
      "type": "function"
    },
    {
      "inputs": [
        {
          "internalType": "address[]",
          "name": "users",
          "type": "address[]"
        },
        {
          "internalType": "uint256[]",
          "name": "amounts",
          "type": "uint256[]"
        },
        {
          "internalType": "bytes32[]",
          "name": "interactionIds",
          "type": "bytes32[]"
        },
        {
          "internalType": "bytes",
          "name": "signature",
          "type": "bytes"
        }
      ],
      "name": "batchRewardSocialInteractions",
      "outputs": [],
      "stateMutability": "nonpayable",
      "type": "function"
    },
    {
      "inputs": [],
      "name": "nocenite",
      "outputs": [
        {
          "internalType": "contract Nocenite",
          "name": "",
          "type": "address"
        }
      ],
      "stateMutability": "view",
      "type": "function"
    },
    {
      "inputs": [],
      "name": "owner",
      "outputs": [
        {
          "internalType": "address",
          "name": "",
          "type": "address"
        }
      ],
      "stateMutability": "view",
      "type": "function"
    },
    {
      "inputs": [
        {
          "internalType": "bytes32",
          "name": "",
          "type": "bytes32"
        }
      ],
      "name": "processedInteractions",
      "outputs": [
        {
          "internalType": "bool",
          "name": "",
          "type": "bool"
        }
      ],
      "stateMutability": "view",
      "type": "function"
    },
    {
      "inputs": [],
      "name": "relayer",
      "outputs": [
        {
          "internalType": "address",
          "name": "",
          "type": "address"
        }
      ],
      "stateMutability": "view",
      "type": "function"
    },
    {
      "inputs": [],
      "name": "renounceOwnership",
      "outputs": [],
      "stateMutability": "nonpayable",
      "type": "function"
    },
    {
      "inputs": [
        {
          "internalType": "address",
          "name": "newOwner",
          "type": "address"
        }
      ],
      "name": "transferOwnership",
      "outputs": [],
      "stateMutability": "nonpayable",
      "type": "function"
    },
    {
      "inputs": [
        {
          "internalType": "address",
          "name": "_newRelayer",
          "type": "address"
        }
      ],
      "name": "updateRelayer",
      "outputs": [],
      "stateMutability": "nonpayable",
      "type": "function"
    },
    {
      "inputs": [
        {
          "internalType": "bytes32",
          "name": "",
          "type": "bytes32"
        }
      ],
      "name": "usedSignatures",
      "outputs": [
        {
          "internalType": "bool",
          "name": "",
          "type": "bool"
        }
      ],
      "stateMutability": "view",
      "type": "function"
    }
  ],
  "bytecode": "0x60a060405234801561001057600080fd5b50604051610f2b380380610f2b83398101604081905261002f9161013c565b806001600160a01b03811661005e57604051631e4fbdf760e01b81526000600482015260240160405180910390fd5b610067816100d0565b50600180556001600160a01b038316158061008957506001600160a01b038216155b156100a75760405163d92e233d60e01b815260040160405180910390fd5b506001600160a01b03918216608052600280546001600160a01b0319169190921617905561017f565b600080546001600160a01b038381166001600160a01b0319831681178455604051919092169283917f8be0079c531659141344cd1fd0a4f28419497f9722a3daafe3b4186f6b6457e09190a35050565b80516001600160a01b038116811461013757600080fd5b919050565b60008060006060848603121561015157600080fd5b61015a84610120565b925061016860208501610120565b915061017660408501610120565b90509250925092565b608051610d8b6101a06000396000818160f501526104600152610d8b6000f3fe608060405234801561001057600080fd5b50600436106100c95760003560e01c80638da5cb5b11610081578063ef091cf81161005b578063ef091cf81461018c578063f2fde38b146101bf578063f978fd61146101d257600080fd5b80638da5cb5b1461015f5780638f83ab1314610170578063cfdbf2541461018357600080fd5b80633f861c48116100b25780633f861c481461012f578063715018a6146101445780638406c0791461014c57600080fd5b806303b1f213146100ce5780631704a882146100f0575b600080fd5b6100dd678ac7230489e8000081565b6040519081526020015b60405180910390f35b6101177f000000000000000000000000000000000000000000000000000000000000000081565b6040516001600160a01b0390911681526020016100e7565b61014261013d366004610b08565b6101f5565b005b61014261051d565b600254610117906001600160a01b031681565b6000546001600160a01b0316610117565b61014261017e366004610c2b565b610531565b6100dd6101f481565b6101af61019a366004610c4d565b60036020526000908152604090205460ff1681565b60405190151581526020016100e7565b6101426101cd366004610c2b565b6105bf565b6101af6101e0366004610c4d565b60046020526000908152604090205460ff1681565b6101fd61061b565b6002546001600160a01b03163314610241576040517fc64891a500000000000000000000000000000000000000000000000000000000815260040160405180910390fd5b86851415806102505750848314155b15610287576040517fa24a13a600000000000000000000000000000000000000000000000000000000815260040160405180910390fd5b6101f48711156102c3576040517faa19ded400000000000000000000000000000000000000000000000000000000815260040160405180910390fd5b604181146102fd576040517f4be6321b00000000000000000000000000000000000000000000000000000000815260040160405180910390fd5b61030d888888888888888861065e565b6000805b888110156104cf5760008a8a8381811061032d5761032d610c66565b90506020020160208101906103429190610c2b565b9050600089898481811061035857610358610c66565b905060200201359050600088888581811061037557610375610c66565b60200291909101359150506001600160a01b0383166103a75760405163d92e233d60e01b815260040160405180910390fd5b8115806103bb5750678ac7230489e8000082115b156103f2576040517f46d71cf400000000000000000000000000000000000000000000000000000000815260040160405180910390fd5b60008181526003602052604090205460ff166104c15760008181526003602052604090819020805460ff19166001179055517f40c10f190000000000000000000000000000000000000000000000000000000081526001600160a01b038481166004830152602482018490527f000000000000000000000000000000000000000000000000000000000000000016906340c10f1990604401600060405180830381600087803b1580156104a457600080fd5b505af11580156104b8573d6000803e3d6000fd5b50505094820194505b836001019350505050610311565b5060408051898152602081018390527f9d79b9158bdad14d29c4e8871ec6a9398bb625f2b0592b64ce94563ca36ea2d5910160405180910390a15061051360018055565b5050505050505050565b6105256107cb565b61052f6000610811565b565b6105396107cb565b6001600160a01b0381166105605760405163d92e233d60e01b815260040160405180910390fd5b600280546001600160a01b0383811673ffffffffffffffffffffffffffffffffffffffff19831681179093556040519116919082907f605ca4e43489fb38b91aa63dd9147cd3847957694b080b9285ec898b34269f0c90600090a35050565b6105c76107cb565b6001600160a01b03811661060f576040517f1e4fbdf7000000000000000000000000000000000000000000000000000000008152600060048201526024015b60405180910390fd5b61061881610811565b50565b600260015403610657576040517f3ee5aeb500000000000000000000000000000000000000000000000000000000815260040160405180910390fd5b6002600155565b600088888888888860405160200161067b96959493929190610cc7565b60405160208183030381529060405280519060200120905060006106cc827f19457468657265756d205369676e6564204d6573736167653a0a3332000000006000908152601c91909152603c902090565b600254604080516020601f88018190048102820181019092528681529293506001600160a01b039091169161071e918790879081908401838280828437600092019190915250869392505061086e9050565b6001600160a01b03161461075e576040517f8baa579f00000000000000000000000000000000000000000000000000000000815260040160405180910390fd5b60008181526004602052604090205460ff16156107a7576040517f900bb2c900000000000000000000000000000000000000000000000000000000815260040160405180910390fd5b6000908152600460205260409020805460ff19166001179055505050505050505050565b6000546001600160a01b0316331461052f576040517f118cdaa7000000000000000000000000000000000000000000000000000000008152336004820152602401610606565b600080546001600160a01b0383811673ffffffffffffffffffffffffffffffffffffffff19831681178455604051919092169283917f8be0079c531659141344cd1fd0a4f28419497f9722a3daafe3b4186f6b6457e09190a35050565b60008060008061087e8686610898565b92509250925061088e82826108e5565b5090949350505050565b600080600083516041036108d25760208401516040850151606086015160001a6108c4888285856109ed565b9550955095505050506108de565b50508151600091506002905b9250925092565b60008260038111156108f9576108f9610d3f565b03610902575050565b600182600381111561091657610916610d3f565b0361094d576040517ff645eedf00000000000000000000000000000000000000000000000000000000815260040160405180910390fd5b600282600381111561096157610961610d3f565b0361099b576040517ffce698f700000000000000000000000000000000000000000000000000000000815260048101829052602401610606565b60038260038111156109af576109af610d3f565b036109e9576040517fd78bce0c00000000000000000000000000000000000000000000000000000000815260048101829052602401610606565b5050565b600080807f7fffffffffffffffffffffffffffffff5d576e7357a4501ddfe92f46681b20a0841115610a285750600091506003905082610ab2565b604080516000808252602082018084528a905260ff891692820192909252606081018790526080810186905260019060a0016020604051602081039080840390855afa158015610a7c573d6000803e3d6000fd5b5050604051601f1901519150506001600160a01b038116610aa857506000925060019150829050610ab2565b9250600091508190505b9450945094915050565b60008083601f840112610ace57600080fd5b50813567ffffffffffffffff811115610ae657600080fd5b6020830191508360208260051b8501011115610b0157600080fd5b9250929050565b6000806000806000806000806080898b031215610b2457600080fd5b883567ffffffffffffffff811115610b3b57600080fd5b610b478b828c01610abc565b909950975050602089013567ffffffffffffffff811115610b6757600080fd5b610b738b828c01610abc565b909750955050604089013567ffffffffffffffff811115610b9357600080fd5b610b9f8b828c01610abc565b909550935050606089013567ffffffffffffffff811115610bbf57600080fd5b8901601f81018b13610bd057600080fd5b803567ffffffffffffffff811115610be757600080fd5b8b6020828401011115610bf957600080fd5b989b979a50959850939692959194602001935050565b80356001600160a01b0381168114610c2657600080fd5b919050565b600060208284031215610c3d57600080fd5b610c4682610c0f565b9392505050565b600060208284031215610c5f57600080fd5b5035919050565b634e487b7160e01b600052603260045260246000fd5b81835260007f07ffffffffffffffffffffffffffffffffffffffffffffffffffffffffffffff831115610cae57600080fd5b8260051b80836020870137939093016020019392505050565b6060808252810186905260008760808301825b89811015610d08576001600160a01b03610cf384610c0f565b16825260209283019290910190600101610cda565b508381036020850152610d1c81888a610c7c565b9150508281036040840152610d32818587610c7c565b9998505050505050505050565b634e487b7160e01b600052602160045260246000fdfea2646970667358221220c2ed12c8b9a32d49e356d9f5c260c1504791646865f64e9321d0f8fb8463768364736f6c634300081c0033",
  "linkReferences": {},
  "deployedLinkReferences": {}
}